:100000000C9453000C947B000C947B000C947B00AC
:100010000C947B000C947B000C947B000C947B0074
:100020000C947B000C947B000C947B000C947B0064
:100030000C947B000C947B000C947B000C947B0054
:100040000C9483040C947B000C9414050C94EE0423
:100050000C947B000C947B000C947B000C947B0034
:100060000C947B000C947B0000000000250028000D
:100070002B0000000000240027002A0004040404D0
:100080000404040402020202020203030303030342
:10009000010204081020408001020408102001021F
:1000A00004081020E70411241FBECFEFD8E0DEBF04
:1000B000CDBF11E0A0E0B1E0ECEEFAE002C00590A7
:1000C0000D92A436B107D9F722E0A4E6B1E001C051
:1000D0001D92AA30B207E1F710E0C3E5D0E004C0FA
:1000E0002197FE010E946E05C235D107C9F70E9413
:1000F000DE040C9474050C9400000895CF93DF93F4
:1001000090E0FC01E057FF4F249184589F4FFC0181
:100110008491882319F190E0880F991FFC01EE5813
:10012000FF4FA591B491FC01E859FF4FC591D491BF
:10013000662349F06230A9F08FB7F894EC91E22B76
:10014000EC938FBF0BC09FB7F8948C91E22FE09592
:100150008E238C938881E823E8839FBFDF91CF9122
:1001600008959FB7F8943C91822F809583238C93B8
:10017000E881E22BE8839FBFF1CF8E3008F08E50EC
:100180008770806480937C00EAE7F0E0808180647F
:10019000808380917A0086FDFCCF809178009091D9
:1001A00079000895789484B5826084BD84B58160B7
:1001B00084BD85B5826085BD85B5816085BDEEE66F
:1001C000F0E0808181608083E1E8F0E0108280814E
:1001D00082608083808181608083E0E8F0E08081BC
:1001E00081608083E1EBF0E0808184608083E0EBDC
:1001F000F0E0808181608083EAE7F0E080818460C4
:10020000808380818260808380818160808380811F
:10021000806880831092C10008953FB7F894809160
:10022000060290910702A0910802B091090226B53A
:10023000A89B05C02F3F19F00196A11DB11D3FBF1E
:10024000BA2FA92F982F8827BC01CD01620F711DED
:10025000811D911D660F771F881F991F660F771FDD
:10026000881F991F08958F929F92AF92BF92CF924D
:10027000DF92EF92FF926B017C010E940D014B0116
:100280005C011BC021E0C21AD108E108F10888EE28
:10029000880E83E0981EA11CB11CC114D104E10496
:1002A000F10459F00E940D01681979098A099B0926
:1002B000683E73408105910528F7C114D104E1041B
:1002C000F10459F7FF90EF90DF90CF90BF90AF907F
:1002D0009F908F9008950895DC01ED91FC9101901D
:1002E000F081E02D09950895CF92DF92EF92FF9271
:1002F0000F931F93CF93DF938C01DB01D0E0C0E01D
:100300007A0181E0E81AF108452BA1F0F80180811B
:100310009181FC01208131816D01FFEFCF1ADF0A4D
:100320006C91C801F9010995892B21F02196A7014B
:10033000D601E6CFCE01DF91CF911F910F91FF90B3
:10034000EF90DF90CF900895019709F008956F3FE7
:100350007F4FE1F7E4E6F1E01382128288EE93E04A
:10036000A0E0B0E084839583A683B78388E091E022
:100370009183808385EC90E09587848784EC90E07E
:100380009787868780EC90E0918B808B81EC90E062
:10039000938B828B82EC90E0958B848B86EC90E043
:1003A000978B868B118E128E138E148ECFCFFC01FD
:1003B000938D848D981720F4891B990B01970895CC
:1003C0002FE330E0291B3109820F932F911D0895EF
:1003D000FC01918D828D981761F0A28DAE0FBF2F19
:1003E000B11D5D968C91928D9F5F9F73928F90E06F
:1003F00008958FEF9FEF0895FC01918D828D9817DE
:1004000031F0828DE80FF11D858D90E008958FEF1A
:100410009FEF0895FC01218D30E0205C3F4F828DDD
:10042000A901481B5109CA018F739927089584E6D1
:1004300091E00E940A0221E0892B09F420E0822F3A
:100440000895CF92DF92EF92FF921F93CF93DF93A5
:10045000EC016A017B01122F60E079E08DE390E00E
:10046000A70196010E944C0521503109410951090B
:100470005695479537952795E889F98982E08083D5
:10048000C11481EED806E104F10421F0211580E1C8
:10049000380798F0E889F989108260E874E88EE1FD
:1004A00090E0A70196010E944C05215031094109B5
:1004B00051095695479537952795EC85FD853083ED
:1004C000EE85FF852083188EEC89FD891083EA89EB
:1004D000FB89808180618083EA89FB8980818860D3
:1004E0008083EA89FB89808180688083EA89FB892F
:1004F00080818F7D8083DF91CF911F91FF90EF905E
:10050000DF90CF900895FC01A48DA80FB92FB11DE5
:10051000A35ABF4F2C91848D90E001968F739078F1
:10052000848FA689B7892C93A089B1898C91837017
:1005300080648C93938D848D981308950288F38939
:10054000E02D80818F7D8083F8CF0F931F93CF9311
:10055000DF93EC0181E0888F9B8D8C8D9817B1F033
:10056000062F8B8D90E001968F739078182F8C8DCD
:1005700081131EC00FB607FCFACFE889F989808184
:1005800085FFF5CFCE010E948302F1CFE889F9897A
:10059000808185FFE5CF9FB7F894EE89FF8960835E
:1005A000E889F98980818370806480839FBF10C04F
:1005B000EB8DEC0FFD2FF11DE35AFF4F00839FB72A
:1005C000F8941B8FEA89FB898081806280839FBFBA
:1005D00081E090E0DF91CF911F910F910895CF932B
:1005E000DF93EC01888D811104C00DC00FB607FEAA
:1005F0000DC0EA89FB89808185FDF8CFA889B9897A
:100600008C9186FFF3CFDF91CF910895808185FF94
:10061000F0CFE889F989808185FFEBCFCE010E9478
:100620008302E7CF80E090E0892B21F00E9417023F
:10063000811101C008950E940000FCCFDF92EF926B
:10064000FF920F931F93CF93DF93CDB7DEB7A197A0
:100650000FB6F894DEBF0FBECDBF7C01CB01BA014F
:10066000D22E19A221E02D1520F48E010F5D1F4F0F
:100670000EC00F2EFAE0DF2EF02DF7CFE95CD80187
:10068000EE938D01611571058105910579F02D2D90
:1006900030E050E040E00E944C05E62F622F732FBF
:1006A000842F952FEA3054F7E05DE9CF1097F9F0E9
:1006B000FD0101900020E9F73197AF014A1B5B0B68
:1006C000D701ED91FC910280F381E02DB801C701C3
:1006D0000995A1960FB6F894DEBF0FBECDBFDF918E
:1006E000CF911F910F91FF90EF90DF90089590E0D0
:1006F00080E0EFCFCF92DF92EF92FF920F931F93A4
:10070000CF93DF93EC016A017B012115310581F460
:10071000E881F9810190F081E02D642F0995DF9146
:10072000CF911F910F91FF90EF90DF90CF900895A0
:100730002A303105C1F4FF2024F02AE00E941E0374
:10074000EECF6DE20E946C018C0144275527BA015F
:100750004C195D096E097F092AE0CE010E941E0333
:10076000800F911FDCCF0E941E03D9CF9A01AB01ED
:10077000770F660B770B0E947A030895DC01ED91E9
:10078000FC910280F381E02D42E050E066E171E0EF
:10079000099508950F931F93CF93DF93EC010E9467
:1007A000B6038C01CE010E94BE03800F911FDF9122
:1007B000CF911F910F9108956115710581F0FB0193
:1007C00001900020E9F73197AF01461B570BDC0180
:1007D000ED91FC910280F381E02D0995089590E060
:1007E00080E008950F931F93CF93DF93EC010E9455
:1007F000DC038C01CE010E94BE03800F911FDF91AC
:10080000CF911F910F91089569E171E084E691E025
:100810000E94F2038EE00E94BD004AE050E0BC015D
:1008200084E691E00E94CA0369E271E084E691E007
:100830000E94F2038FE00E94BD004AE050E0BC013C
:1008400084E691E00E94CA0369E371E084E691E0E6
:100850000E94F20380E10E94BD004AE050E0BC012A
:1008600084E691E00E94CA0369E471E084E691E0C5
:100870000E94F20381E10E94BD004AE050E0BC0109
:1008800084E691E00E94CA0360ED77E080E090E0AA
:100890000E94330190E080E008950E9404040895CE
:1008A000CF93DF93D0E0C0E0CE30D10534F461E0E7
:1008B0008C2F0E947E002196F7CFD0E0C0E0C4309C
:1008C000D1054CF4FE01E050FF4F62E080810E94B0
:1008D0007E002196F4CF26E040E855E260E070E02B
:1008E00084E691E00E94210268E171E084E691E0F3
:1008F0000E94F20369E571E084E691E00E94F20350
:10090000DF91CF9108951F920F920FB60F9211248D
:100910000F931F932F933F934F935F936F937F9307
:100920008F939F93AF93BF930091020210910302A4
:10093000209104023091050290910102B901A801B1
:100940004F5F5F4F6F4F7F4F83E0890F8D3740F0D0
:1009500086E8890FB901A8014E5F5F4F6F4F7F4F47
:1009600080930102409302025093030260930402B9
:10097000709305028091060290910702A0910802EF
:10098000B09109020196A11DB11D809306029093BA
:100990000702A0930802B0930902BF91AF919F9103
:1009A0008F917F916F915F914F913F912F911F9107
:1009B0000F910F900FBE0F901F9018950E94D200BC
:1009C0000E9450040E944D040E941203FBCF6FEF5F
:1009D0007FEF81E090E00E94A40108951F920F92A2
:1009E0000FB60F9211242F933F934F935F936F9302
:1009F0007F938F939F93AF93BF93EF93FF9384E67F
:100A000091E00E948302FF91EF91BF91AF919F917E
:100A10008F917F916F915F914F913F912F910F90A7
:100A20000FBE0F901F9018951F920F920FB60F9246
:100A300011242F938F939F93AF93BF93EF93FF93C3
:100A4000E0917401F0917501808182FD14C0E4E6AB
:100A5000F1E0A689B7892C91818D8F5F8F73928D7C
:100A6000891771F0DF01E18DF0E0EC59FE4F258F21
:100A700059968C9305C0E0917A01F0917B018081B9
:100A8000FF91EF91BF91AF919F918F912F910F9017
:100A90000FBE0F901F901895A1E21A2EAA1BBB1B28
:100AA000FD010DC0AA1FBB1FEE1FFF1FA217B3073A
:100AB000E407F50720F0A21BB30BE40BF50B661F50
:100AC000771F881F991F1A9469F760957095809514
:100AD00090959B01AC01BD01CF010895EE0FFF1F62
:0C0AE0000590F491E02D0994F894FFCFEC
:100AEC000E0F101100000000A5027401D701EF02D7
:100AFC000A02E801FC010D0A0053573141207661CE
:100B0C006C75652069733A20005357324120766129
:100B1C006C75652069733A20005357334120766118
:100B2C006C75652069733A20005357344120766107
:100B3C006C75652069733A2000424547494E205434
:040B4C0045535400B9
:00000001FF
