:100000000C945D000C9485000C9485000C94850084
:100010000C9485000C9485000C9485000C9485004C
:100020000C9485000C9485000C9485000C9485003C
:100030000C9485000C9485000C9485000C9485002C
:100040000C94BA060C9485000C944B070C9425076D
:100050000C9485000C9485000C9485000C9485000C
:100060000C9485000C9485000000000024002700FB
:100070002A0000000000250028002B0004040404CE
:100080000404040402020202020203030303030342
:10009000010204081020408001020408102001021F
:1000A00004081020000000080002010000030407FB
:1000B00000000000000000001E0711241FBECFEF4B
:1000C000D8E0DEBFCDBF11E0A0E0B1E0E2EDF3E1AA
:1000D00002C005900D92AE33B107D9F721E0AEE32F
:1000E000B1E001C01D92A43EB207E1F710E0CDE5FA
:1000F000D0E004C02197FE010E94A507CC35D107AE
:10010000C9F70E9415070C94E7090C9400000895A4
:100110008330B1F060F08730E9F0883009F1843045
:1001200021F5E0E8F0E080818F7D808308958130C3
:1001300069F0823021F484B58F7D84BD08950895DF
:10014000E0E8F0E080818F778083089584B58F7731
:1001500084BD0895E0EBF0E080818F77808308957F
:10016000E0EBF0E080818F7D808308951F93CF9333
:10017000DF93282F30E0F901EC55FF4F8491F9010E
:10018000E057FF4F1491F901E458FF4FC491CC237D
:10019000A9F0D62F811116C0EC2FF0E0EE0FFF1F53
:1001A000EE58FF4FA591B4918FB7F894D1110DC0BF
:1001B0009C91E12FE095E923EC938FBFDF91CF91E4
:1001C0001F9108950E948800E7CFEC91E12BEC93FA
:1001D000F4CFCF93DF9390E0FC01E057FF4F2491E1
:1001E00084589F4FFC018491882319F190E0880F77
:1001F000991FFC01E859FF4FA591B491FC01EE58FD
:10020000FF4FC591D491662349F06230A9F08FB7B2
:10021000F894EC91E22BEC938FBF0BC09FB7F8944E
:100220008C91E22FE0958E238C938881E823E883DC
:100230009FBFDF91CF9108959FB7F8943C91822F93
:10024000809583238C93E881E22BE8839FBFF1CFD5
:100250008E3008F08E508770806480937C00EAE7CF
:10026000F0E080818064808380917A0086FDFCCFFD
:1002700080917800909179000895789484B5826097
:1002800084BD84B5816084BD85B5826085BD85B53A
:10029000816085BDEEE6F0E0808181608083E1E8E9
:1002A000F0E0108280818260808380818160808321
:1002B000E0E8F0E0808181608083E1EBF0E0808124
:1002C00084608083E0EBF0E0808181608083EAE7F6
:1002D000F0E080818460808380818260808380817F
:1002E000816080838081806880831092C10008953E
:1002F0003FB7F8948091E0019091E101A091E20173
:10030000B091E30126B5A89B05C02F3F19F00196D7
:10031000A11DB11D3FBFBA2FA92F982F8827BC015F
:10032000CD01620F711D811D911D660F771F881F02
:10033000991F660F771F881F991F08958F929F92AC
:10034000AF92BF92CF92DF92EF92FF926B017C014E
:100350000E9478014B015C011BC021E0C21AD10848
:10036000E108F10888EE880E83E0981EA11CB11CFC
:10037000C114D104E104F10459F00E947801681914
:1003800079098A099B09683E73408105910528F720
:10039000C114D104E104F10459F7FF90EF90DF900C
:1003A000CF90BF90AF909F908F9008950895DC01FB
:1003B000ED91FC910190F081E02D09950895CF9287
:1003C000DF92EF92FF920F931F93CF93DF938C01F5
:1003D000DB01D0E0C0E07A0181E0E81AF108452BAA
:1003E000A1F0F80180819181FC01208131816D01B2
:1003F000FFEFCF1ADF0A6C91C801F9010995892B2B
:1004000021F02196A701D601E6CFCE01DF91CF9151
:100410001F910F91FF90EF90DF90CF90089501977B
:1004200009F008956F3F7F4FE1F7EEE3F1E01382AB
:10043000128288EE93E0A0E0B0E084839583A683E7
:10044000B7838CE091E09183808385EC90E0958781
:10045000848784EC90E09787868780EC90E0918B8E
:10046000808B81EC90E0938B828B82EC90E0958B7B
:10047000848B86EC90E0978B868B118E128E138E78
:10048000148ECFCFFC01938D848D981720F4891B97
:10049000990B019708952FE330E0291B3109820F52
:1004A000932F911D0895FC01918D828D981761F015
:1004B000A28DAE0FBF2FB11D5D968C91928D9F5F67
:1004C0009F73928F90E008958FEF9FEF0895FC0146
:1004D000918D828D981731F0828DE80FF11D858DF9
:1004E00090E008958FEF9FEF0895FC01218D30E09B
:1004F000205C3F4F828DA901481B5109CA018F73AF
:10050000992708958EE391E00E94750221E0892BDE
:1005100009F420E0822F0895CF92DF92EF92FF92AC
:100520001F93CF93DF93EC016A017B01122F60E0F0
:1005300079E08DE390E0A70196010E9483072150A6
:100540003109410951095695479537952795E8890D
:10055000F98982E08083C11481EED806E104F104B8
:1005600021F0211580E1380798F0E889F989108297
:1005700060E874E88EE190E0A70196010E9483078D
:1005800021503109410951095695479537952795CD
:10059000EC85FD853083EE85FF852083188EEC8900
:1005A000FD891083EA89FB89808180618083EA89E3
:1005B000FB89808188608083EA89FB8980818068EB
:1005C0008083EA89FB8980818F7D8083DF91CF9151
:1005D0001F91FF90EF90DF90CF900895FC01A48DC4
:1005E000A80FB92FB11DA35ABF4F2C91848D90E055
:1005F00001968F739078848FA689B7892C93A089F0
:10060000B1898C91837080648C93938D848D9813C1
:1006100008950288F389E02D80818F7D8083F8CF53
:100620000F931F93CF93DF93EC0181E0888F9B8D15
:100630008C8D9817B1F0062F8B8D90E001968F73FB
:100640009078182F8C8D81131EC00FB607FCFACF3F
:10065000E889F989808185FFF5CFCE010E94EE02FD
:10066000F1CFE889F989808185FFE5CF9FB7F894BC
:10067000EE89FF896083E889F989808183708064CD
:1006800080839FBF10C0EB8DEC0FFD2FF11DE35A4F
:10069000FF4F00839FB7F8941B8FEA89FB89808105
:1006A000806280839FBF81E090E0DF91CF911F91B6
:1006B0000F910895CF93DF93EC01888D811104C0D1
:1006C0000DC00FB607FE0DC0EA89FB89808185FD4C
:1006D000F8CFA889B9898C9186FFF3CFDF91CF91AC
:1006E0000895808185FFF0CFE889F989808185FFB1
:1006F000EBCFCE010E94EE02E7CF80E090E0892BA5
:1007000021F00E948202811101C008950E94000020
:10071000FCCFCF93DF93D0E0C0E0C430D1055CF4D0
:10072000FE01EC5FFE4F80810E942801883C91050C
:1007300024F02196F2CFD0E0C0E0CE01DF91CF913E
:100740000895CF93DF93C2E0D0E0C930D10534F4EF
:1007500060E08C2F0E94B6002196F7CFDF91CF91F9
:100760000895CF93C82F0E94A10361E08C2F0E94AF
:10077000B600CF910895CF93DF93C9E0D0E0CC309D
:10078000D10534F461E08C2F0E94B6002196F7CF9A
:10079000DF91CF910895CF93C82F0E94BB0360E0F3
:1007A0008C2F0E94B600CF910895CF93DF930E94C3
:1007B000CB03C2E0D0E0C930D10534F460E08C2F27
:1007C0000E94B6002196F7CFDF91CF910895CF9385
:1007D000DF930E94CB03C2E0D0E0C930D10534F4EE
:1007E00061E08C2F0E94B6002196F7CFDF91CF9168
:1007F00008950F931F93CF93DF938C01D0E0C0E057
:10080000C330D105A4F4C8010E94E70368EE73E089
:1008100080E090E00E949E01C8010E94D50364EF31
:1008200071E080E090E00E949E012196E9CFDF9187
:10083000CF911F910F9108950F931F93CF93DF9343
:1008400009E010E002C00F5F1F4F0C3011059CF44F
:10085000C8010E94CB03C2E0D0E0C930D1059CF7AB
:10086000CE010E94B10368EE73E080E090E00E9448
:100870009E012196F2CFDF91CF911F910F910895A4
:100880000E9489038130910591F054F082309105E6
:1008900099F0039759F48BE090E00E94F9030895D2
:1008A000892B19F40E941C0408950895089589E085
:1008B00090E00E94F90308958AE090E00E94F90315
:1008C00008956115710581F0FB0101900020E9F7A1
:1008D0003197AF01461B570BDC01ED91FC91028073
:1008E000F381E02D0995089590E080E008956AE194
:1008F00071E00E94610408950E94610408950F93BD
:100900001F93CF93DF93EC010E947C048C01CE01F6
:100910000E947704800F911FDF91CF911F910F915B
:100920000895DF92EF92FF920F931F93CF93DF937F
:10093000CDB7DEB7A1970FB6F894DEBF0FBECDBF1F
:100940007C01CB01BA01D22E19A221E02D1520F491
:100950008E010F5D1F4F0EC00F2EFAE0DF2EF02D1F
:10096000F7CFE95CD801EE938D0161157105810522
:10097000910579F02D2D30E050E040E00E94830792
:10098000E62F622F732F842F952FEA3054F7E05D06
:10099000E9CF1097F9F0FD0101900020E9F73197B8
:1009A000AF014A1B5B0BD701ED91FC910280F381F3
:1009B000E02DB801C7010995A1960FB6F894DEBFE6
:1009C0000FBECDBFDF91CF911F910F91FF90EF90A0
:1009D000DF90089590E080E0EFCF2115310549F4D4
:1009E000DC01ED91FC910190F081E02D642F0995DF
:1009F00008950E94910408950F931F93CF93DF935E
:100A0000EC010E94ED048C01CE010E947704800F5E
:100A1000911FDF91CF911F910F9108959A01AB0122
:100A200070E060E00E94ED0408954F925F926F9233
:100A30007F92AF92BF92CF92DF92EF92FF920F938D
:100A40001F93CF93DF9300D000D01F92CDB7DEB7B6
:100A50005C016A017B012D83AB019601CB01B601DC
:100A60000E94E209811151C026013701E89477F80C
:100A700021E029832FEF3FEF4FE75FE7C301B2018A
:100A80000E94E20981110BC02FEF3FEF4FE75FE7B4
:100A9000C301B2010E94180818160CF4198289814A
:100AA0008823D1F12FEF3FEF4FE75FE4C701B60195
:100AB0000E94700918160CF44AC02FEF3FEF4FE761
:100AC0005FECC701B6010E94180888230CF446C0E9
:100AD00020E030E0A901C701B6010E941808882370
:100AE0000CF443C0712C612C10E060E070E080E0F9
:100AF0009FE32D81121708F042C020E030E040E271
:100B000051E40E941D081F5FF4CF6DE171E0C50143
:100B10000E947C048C0106C061E271E0C5010E9464
:100B20007C048C01C8010F900F900F900F900F90D4
:100B3000DF91CF911F910F91FF90EF90DF90CF90B9
:100B4000BF90AF907F906F905F904F90089565E257
:100B500071E0C5010E947C048C01E4CF65E271E084
:100B6000C5010E947C048C01DDCF6DE2C5010E94AD
:100B7000D7013C01F7FAF094F7F8F094B5CF9B0158
:100B8000AC01C701B6010E94AC076B017C010E9459
:100B90008F0869837A838B839C830E94BE089B01A4
:100BA000AC01C701B6010E94AB076B017C012AE0D2
:100BB00030E049815A816B817C81C5010E94ED043E
:100BC0008301080F191F8D8181112BC02D812150A8
:100BD00029838D81882309F4A5CF20E030E040E20D
:100BE00051E4C701B6010E9475092B013C010E9426
:100BF0008F086B014AE050E0C5010E940E05080F06
:100C0000191FB60190E080E00E94BE089B01AC0174
:100C1000C301B2010E94AB076B017C0129812D83C6
:100C2000D5CF6EE2C5010E94D701080F191FCECFA4
:100C30000E9415050895CF92DF92EF92FF920F93D5
:100C40001F93CF93DF93EC016A017B0121153105DE
:100C500081F4E881F9810190F081E02D642F0995FC
:100C6000DF91CF911F910F91FF90EF90DF90CF9088
:100C700008952A303105C1F4FF2024F02AE00E94B3
:100C80009104EECF6DE20E94D7018C0144275527D5
:100C9000BA014C195D096E097F092AE0CE010E9454
:100CA0009104800F911FDCCF0E949104D9CF9A014B
:100CB000AB01770F660B770B0E941B0608950F930D
:100CC0001F93CF93DF93EC010E9457068C01CE0156
:100CD0000E947704800F911FDF91CF911F910F9198
:100CE0000895CF93DF93D0E0C0E0CE30D10534F447
:100CF00061E08C2F0E94E9002196F7CFD0E0C0E0A0
:100D0000C430D1054CF4FE01E050FF4F62E0808119
:100D10000E94E9002196F4CF26E040E855E260E029
:100D200070E08EE391E00E948C024AE050E06AE0BD
:100D300070E08EE391E00E945F062AE030E044E834
:100D400055EB62E774E58EE391E00E94FC0469E2F2
:100D500071E08EE391E00E947F0425E030E04BEDEE
:100D60005FE069E470E48EE391E00E941806DF9191
:100D7000CF9108951F920F920FB60F9211240F93E7
:100D80001F932F933F934F935F936F937F938F9313
:100D90009F93AF93BF930091DC011091DD012091EF
:100DA000DE013091DF019091DB01B901A8014F5FB5
:100DB0005F4F6F4F7F4F83E0890F8D3740F086E89C
:100DC000890FB901A8014E5F5F4F6F4F7F4F80932E
:100DD000DB014093DC015093DD016093DE017093F1
:100DE000DF018091E0019091E101A091E201B091D9
:100DF000E3010196A11DB11D8093E0019093E101F3
:100E0000A093E201B093E301BF91AF919F918F91C5
:100E10007F916F915F914F913F912F911F910F9112
:100E20000F900FBE0F901F9018950E943D010E94D9
:100E300071060E9440040E947D03FBCF6FEF7FEF9D
:100E400081E090E00E940F0208951F920F920FB66A
:100E50000F9211242F933F934F935F936F937F9340
:100E60008F939F93AF93BF93EF93FF938EE391E0A4
:100E70000E94EE02FF91EF91BF91AF919F918F91F0
:100E80007F916F915F914F913F912F910F900FBE86
:100E90000F901F9018951F920F920FB60F9211246A
:100EA0002F938F939F93AF93BF93EF93FF93E09113
:100EB0004E01F0914F01808182FD14C0EEE3F1E01C
:100EC000A689B7892C91818D8F5F8F73928D891739
:100ED00071F0DF01E18DF0E0E25CFE4F258F599665
:100EE0008C9305C0E0915401F09155018081FF91F0
:100EF000EF91BF91AF919F918F912F910F900FBE66
:100F00000F901F901895A1E21A2EAA1BBB1BFD0182
:100F10000DC0AA1FBB1FEE1FFF1FA217B307E407D8
:100F2000F50720F0A21BB30BE40BF50B661F771F30
:100F3000881F991F1A9469F7609570958095909510
:100F40009B01AC01BD01CF010895EE0FFF1F05907D
:100F5000F491E02D09945058BB27AA270E94C3079B
:100F60000C9436090E94280938F00E942F0920F0BD
:100F700039F49F3F19F426F40C9425090EF4E095FA
:100F8000E7FB0C941F09E92F0E94470958F3BA1791
:100F9000620773078407950720F079F4A6F50C948F
:100FA00069090EF4E0950B2EBA2FA02D0B01B901A3
:100FB00090010C01CA01A0011124FF27591B99F0CF
:100FC000593F50F4503E68F11A16F040A22F232FDB
:100FD000342F4427585FF3CF469537952795A7952B
:100FE000F0405395C9F77EF41F16BA0B620B730BD2
:100FF000840BBAF09150A1F0FF0FBB1F661F771F43
:10100000881FC2F70EC0BA0F621F731F841F48F4F7
:10101000879577956795B795F7959E3F08F0B0CF80
:101020009395880F08F09927EE0F97958795089567
:101030000E94FB0808F481E008950E9431080C9496
:1010400036090E942F0958F00E94280940F029F41F
:101050005F3F29F00C941F0951110C946A090C94FC
:1010600025090E94470968F39923B1F3552391F3A9
:10107000951B550BBB27AA2762177307840738F007
:101080009F5F5F4F220F331F441FAA1FA9F335D064
:101090000E2E3AF0E0E832D091505040E695001C18
:1010A000CAF72BD0FE2F29D0660F771F881FBB1FD2
:1010B000261737074807AB07B0E809F0BB0B802DB0
:1010C000BF01FF2793585F4F3AF09E3F510578F0DC
:1010D0000C941F090C946A095F3FE4F3983ED4F323
:1010E000869577956795B795F7959F5FC9F7880FB0
:1010F000911D9695879597F90895E1E0660F771F02
:10110000881FBB1F621773078407BA0720F0621B92
:10111000730B840BBA0BEE1F88F7E09508950E94BD
:101120004F0988F09F5798F0B92F9927B751B0F021
:10113000E1F0660F771F881F991F1AF0BA95C9F75B
:1011400014C0B13091F00E946909B1E008950C9487
:101150006909672F782F8827B85F39F0B93FCCF33A
:10116000869577956795B395D9F73EF490958095D8
:10117000709561957F4F8F4F9F4F0895E89409C0F8
:1011800097FB3EF490958095709561957F4F8F4FBA
:101190009F4F9923A9F0F92F96E9BB279395F695D0
:1011A000879577956795B795F111F8CFFAF4BB0F4E
:1011B00011F460FF1BC06F5F7F4F8F4F9F4F16C0B2
:1011C000882311F096E911C0772321F09EE8872F3C
:1011D000762F05C0662371F096E8862F70E060E0F8
:1011E0002AF09A95660F771F881FDAF7880F969571
:1011F000879597F90895990F0008550FAA0BE0E815
:10120000FEEF16161706E807F907C0F012161306C8
:10121000E407F50798F0621B730B840B950B39F408
:101220000A2661F0232B242B252B21F408950A266E
:1012300009F4A140A6958FEF811D811D089597F9AE
:101240009F6780E870E060E008959FEF80EC08956C
:1012500000240A9416161706180609060895002495
:101260000A9412161306140605060895092E03940F
:10127000000C11F4882352F0BB0F40F4BF2B11F483
:1012800060FF04C06F5F7F4F8F4F9F4F089557FDE2
:101290009058440F551F59F05F3F71F04795880FE4
:1012A00097FB991F61F09F3F79F08795089512167B
:1012B00013061406551FF2CF4695F1DF08C0161627
:1012C00017061806991FF1CF8695710561050894D8
:1012D0000895E894BB2766277727CB0197F90895EF
:1012E0000E94FB0808F48FEF08950E9488090C946F
:1012F00036090E94280938F00E942F0920F0952312
:1013000011F00C941F090C94250911240C946A09FE
:101310000E94470970F3959FC1F3950F50E0551F48
:10132000629FF001729FBB27F00DB11D639FAA273A
:10133000F00DB11DAA1F649F6627B00DA11D661F89
:10134000829F2227B00DA11D621F739FB00DA11DAA
:10135000621F839FA00D611D221F749F3327A00D64
:10136000611D231F849F600D211D822F762F6A2F00
:1013700011249F5750409AF0F1F088234AF0EE0F65
:10138000FF1FBB1F661F771F881F91505040A9F792
:101390009E3F510580F00C941F090C946A095F3F31
:1013A000E4F3983ED4F3869577956795B795F795CE
:1013B000E7959F5FC1F7FE2B880F911D9695879546
:1013C00097F908950E94FB08880B990B0895F894EB
:0213D000FFCF4D
:1013D2000E0F10110E0F1011000000001003DF019C
:1013E20042025A037502530267020D0A006E616ED1
:1013F20000696E66006F76660054686973206973CF
:0E140200204D795F436861724172726179001A
:00000001FF
