:100000000C945C000C946E000C946E000C946E00CA
:100010000C946E000C946E000C946E000C946E00A8
:100020000C946E000C946E000C946E000C946E0098
:100030000C946E000C946E000C946E000C946E0088
:100040000C9457020C946E000C946E000C946E008D
:100050000C946E000C946E000C946E000C946E0068
:100060000C946E000C946E00000000002400270029
:100070002A0000000000250028002B0004040404CE
:100080000404040402020202020203030303030342
:10009000010204081020408001020408102001021F
:1000A00004081020000000080002010000030407FB
:1000B000000000000000000011241FBECFEFD8E0B8
:1000C000DEBFCDBF21E0A0E0B1E001C01D92A930AC
:1000D000B207E1F70E94B2020C94BF020C94000038
:1000E00008958330B1F060F08730E9F0883009F18D
:1000F000843021F5E0E8F0E080818F7D80830895F1
:10010000813069F0823021F484B58F7D84BD0895FB
:100110000895E0E8F0E080818F778083089584B5CA
:100120008F7784BD0895E0EBF0E080818F77808346
:100130000895E0EBF0E080818F7D808308951F9328
:10014000CF93DF93282F30E0F901EC55FF4F8491D6
:10015000F901E057FF4F1491F901E458FF4FC491A2
:10016000CC23A9F0D62F811116C0EC2FF0E0EE0FB2
:10017000FF1FEE58FF4FA591B4918FB7F894D1119E
:100180000DC09C91E12FE095E923EC938FBFDF91A7
:10019000CF911F9108950E947100E7CFEC91E12B60
:1001A000EC93F4CFCF93DF9390E0FC01E057FF4F47
:1001B000249184589F4FFC018491882319F190E089
:1001C000880F991FFC01E859FF4FA591B491FC01DC
:1001D000EE58FF4FC591D491662349F06230A9F0E3
:1001E0008FB7F894EC91E22BEC938FBF0BC09FB7C5
:1001F000F8948C91E22FE0958E238C938881E823EC
:10020000E8839FBFDF91CF9108959FB7F8943C9109
:10021000822F809583238C93E881E22BE8839FBF14
:10022000F1CF789484B5826084BD84B5816084BD4B
:1002300085B5826085BD85B5816085BDEEE6F0E05F
:10024000808181608083E1E8F0E0108280818260BB
:100250008083808181608083E0E8F0E0808181603C
:100260008083E1EBF0E0808184608083E0EBF0E06C
:10027000808181608083EAE7F0E080818460808310
:1002800080818260808380818160808380818068BA
:1002900080831092C10008953FB7F89480910501C2
:1002A00090910601A0910701B091080126B5A89B85
:1002B00005C02F3F19F00196A11DB11D3FBFBA2FF8
:1002C000A92F982F8827BC01CD01620F711D811DB8
:1002D000911D660F771F881F991F660F771F881F54
:1002E000991F08958F929F92AF92BF92CF92DF9203
:1002F000EF92FF926B017C010E944C014B015C016B
:100300001BC021E0C21AD108E108F10888EE880E6E
:1003100083E0981EA11CB11CC114D104E104F104B6
:1003200059F00E944C01681979098A099B09683EB5
:1003300073408105910528F7C114D104E104F1044B
:1003400059F7FF90EF90DF90CF90BF90AF909F90C4
:100350008F9008950895CF93DF93C2E0D0E0C93025
:10036000D10534F460E08C2F0E949F002196F7CFD6
:10037000DF91CF910895CF93C82F0E94AB0161E028
:100380008C2F0E949F00CF910895CF93DF93C9E0F7
:10039000D0E0CC30D10534F461E08C2F0E949F0076
:1003A0002196F7CFDF91CF910895CF93C82F0E9468
:1003B000C50160E08C2F0E949F00CF910895CF93DC
:1003C000DF930E94D501C2E0D0E0C930D10534F4FA
:1003D00060E08C2F0E949F002196F7CFDF91CF9194
:1003E0000895CF93DF930E94D501C2E0D0E0C930D9
:1003F000D10534F461E08C2F0E949F002196F7CF45
:10040000DF91CF910895CF93DF93EC010E94F1012A
:1004100068EE73E080E090E00E947201CE010E94DD
:10042000DF01DF91CF9108950F931F93CF93DF9357
:1004300009E010E002C00F5F1F4F0C3011059CF463
:10044000C8010E94D501C2E0D0E0C930D1059CF7B7
:10045000CE010E94BB0168EE73E080E090E00E9454
:1004600072012196F2CFDF91CF911F910F910895E4
:100470000E94140289E090E00E9403028AE090E06A
:100480000E9403028BE090E00E9403020895CF9344
:10049000DF93D0E0C0E0CE30D10534F461E08C2FA2
:1004A0000E94D2002196F7CFDF91CF9108951F923D
:1004B0000F920FB60F9211240F931F932F933F9318
:1004C0004F935F936F937F938F939F93AF93BF935C
:1004D000009101011091020120910301309104016A
:1004E00090910001B901A8014F5F5F4F6F4F7F4F9F
:1004F00083E0890F8D3740F086E8890FB901A801A4
:100500004E5F5F4F6F4F7F4F80930001409301011B
:1005100050930201609303017093040180910501DF
:1005200090910601A0910701B09108010196A11DCB
:10053000B11D8093050190930601A0930701B0932C
:100540000801BF91AF919F918F917F916F915F91C2
:100550004F913F912F911F910F910F900FBE0F90D0
:100560001F9018950E9411010E9447020E943802B4
:1005700080E090E0892BD1F30E940000F7CFF8943F
:02058000FFCFAB
:00000001FF
