:100000000C945D000C9485000C9485000C94850084
:100010000C9485000C9485000C9485000C9485004C
:100020000C9485000C9485000C9485000C9485003C
:100030000C9485000C9485000C9485000C9485002C
:100040000C9498040C9485000C9429050C940305D9
:100050000C9485000C9485000C9485000C9485000C
:100060000C9485000C9485000000000024002700FB
:100070002A0000000000250028002B0004040404CE
:100080000404040402020202020203030303030342
:10009000010204081020408001020408102001021F
:1000A00004081020000000080002010000030407FB
:1000B0000000000000000000FC0411241FBECFEF70
:1000C000D8E0DEBFCDBF11E0A0E0B1E0E6E1FBE0AB
:1000D00002C005900D92A631B107D9F721E0A6E143
:1000E000B1E001C01D92AC3BB207E1F710E0CDE5F5
:1000F000D0E004C02197FE010E948305CC35D107D2
:10010000C9F70E94F3040C9489050C94000008952B
:100110008330B1F060F08730E9F0883009F1843045
:1001200021F5E0E8F0E080818F7D808308958130C3
:1001300069F0823021F484B58F7D84BD08950895DF
:10014000E0E8F0E080818F778083089584B58F7731
:1001500084BD0895E0EBF0E080818F77808308957F
:10016000E0EBF0E080818F7D808308951F93CF9333
:10017000DF93282F30E0F901EC55FF4F8491F9010E
:10018000E057FF4F1491F901E458FF4FC491CC237D
:10019000A9F0D62F811116C0EC2FF0E0EE0FFF1F53
:1001A000EE58FF4FA591B4918FB7F894D1110DC0BF
:1001B0009C91E12FE095E923EC938FBFDF91CF91E4
:1001C0001F9108950E948800E7CFEC91E12BEC93FA
:1001D000F4CFCF93DF9390E0FC01E057FF4F2491E1
:1001E00084589F4FFC018491882319F190E0880F77
:1001F000991FFC01E859FF4FA591B491FC01EE58FD
:10020000FF4FC591D491662349F06230A9F08FB7B2
:10021000F894EC91E22BEC938FBF0BC09FB7F8944E
:100220008C91E22FE0958E238C938881E823E883DC
:100230009FBFDF91CF9108959FB7F8943C91822F93
:10024000809583238C93E881E22BE8839FBFF1CFD5
:100250008E3008F08E508770806480937C00EAE7CF
:10026000F0E080818064808380917A0086FDFCCFFD
:1002700080917800909179000895789484B5826097
:1002800084BD84B5816084BD85B5826085BD85B53A
:10029000816085BDEEE6F0E0808181608083E1E8E9
:1002A000F0E0108280818260808380818160808321
:1002B000E0E8F0E0808181608083E1EBF0E0808124
:1002C00084608083E0EBF0E0808181608083EAE7F6
:1002D000F0E080818460808380818260808380817F
:1002E000816080838081806880831092C10008953E
:1002F0003FB7F8948091B8019091B901A091BA01EB
:10030000B091BB0126B5A89B05C02F3F19F00196FF
:10031000A11DB11D3FBFBA2FA92F982F8827BC015F
:10032000CD01620F711D811D911D660F771F881F02
:10033000991F660F771F881F991F08958F929F92AC
:10034000AF92BF92CF92DF92EF92FF926B017C014E
:100350000E9478014B015C011BC021E0C21AD10848
:10036000E108F10888EE880E83E0981EA11CB11CFC
:10037000C114D104E104F10459F00E947801681914
:1003800079098A099B09683E73408105910528F720
:10039000C114D104E104F10459F7FF90EF90DF900C
:1003A000CF90BF90AF909F908F9008950895CF9277
:1003B000DF92EF92FF920F931F93CF93DF938C0105
:1003C000DB01D0E0C0E07A0181E0E81AF108452BBA
:1003D000A1F0F80180819181FC01208131816D01C2
:1003E000FFEFCF1ADF0A6C91C801F9010995892B3B
:1003F00021F02196A701D601E6CFCE01DF91CF9162
:100400001F910F91FF90EF90DF90CF90089501978B
:1004100009F008956F3F7F4FE1F7E6E1F1E01382C5
:10042000128288EE93E0A0E0B0E084839583A683F7
:10043000B78388E091E09183808385EC90E0958795
:10044000848784EC90E09787868780EC90E0918B9E
:10045000808B81EC90E0938B828B82EC90E0958B8B
:10046000848B86EC90E0978B868B118E128E138E88
:10047000148ECFCFFC01938D848D981720F4891BA7
:10048000990B019708952FE330E0291B3109820F62
:10049000932F911D0895FC01918D828D981761F025
:1004A000A28DAE0FBF2FB11D5D968C91928D9F5F77
:1004B0009F73928F90E008958FEF9FEF0895FC0156
:1004C000918D828D981731F0828DE80FF11D858D09
:1004D00090E008958FEF9FEF0895FC01218D30E0AB
:1004E000205C3F4F828DA901481B5109CA018F73BF
:1004F0009927089586E191E00E946D0221E0892B01
:1005000009F420E0822F0895CF92DF92EF92FF92BC
:100510001F93CF93DF93EC016A017B01122F60E000
:1005200079E08DE390E0A70196010E9461052150DA
:100530003109410951095695479537952795E8891D
:10054000F98982E08083C11481EED806E104F104C8
:1005500021F0211580E1380798F0E889F9891082A7
:1005600060E874E88EE190E0A70196010E946105C1
:1005700021503109410951095695479537952795DD
:10058000EC85FD853083EE85FF852083188EEC8910
:10059000FD891083EA89FB89808180618083EA89F3
:1005A000FB89808188608083EA89FB8980818068FB
:1005B0008083EA89FB8980818F7D8083DF91CF9161
:1005C0001F91FF90EF90DF90CF900895FC01A48DD4
:1005D000A80FB92FB11DA35ABF4F2C91848D90E065
:1005E00001968F739078848FA689B7892C93A08900
:1005F000B1898C91837080648C93938D848D9813D2
:1006000008950288F389E02D80818F7D8083F8CF63
:100610000F931F93CF93DF93EC0181E0888F9B8D25
:100620008C8D9817B1F0062F8B8D90E001968F730B
:100630009078182F8C8D81131EC00FB607FCFACF4F
:10064000E889F989808185FFF5CFCE010E94E60215
:10065000F1CFE889F989808185FFE5CF9FB7F894CC
:10066000EE89FF896083E889F989808183708064DD
:1006700080839FBF10C0EB8DEC0FFD2FF11DE35A5F
:10068000FF4F00839FB7F8941B8FEA89FB89808115
:10069000806280839FBF81E090E0DF91CF911F91C6
:1006A0000F910895CF93DF93EC01888D811104C0E1
:1006B0000DC00FB607FE0DC0EA89FB89808185FD5C
:1006C000F8CFA889B9898C9186FFF3CFDF91CF91BC
:1006D0000895808185FFF0CFE889F989808185FFC1
:1006E000EBCFCE010E94E602E7CF80E090E0892BBD
:1006F00021F00E947A02811101C008950E94000039
:10070000FCCFCF93DF9368EE73E080E090E00E942F
:100710009E018EE00E942801883C9105E4F0D0E023
:10072000C0E08FE00E942801883C910514F4C2E0EB
:10073000D0E080E10E942801883C910514F4C3E0D8
:10074000D0E081E10E942801883C91053CF0CE0177
:10075000DF91CF910895C1E0D0E0E3CFC4E0D0E0D5
:10076000F6CFCF93DF93C2E0D0E0C930D10534F4A7
:1007700060E08C2F0E94B6002196F7CFDF91CF91D9
:100780000895CF93C82F0E94B10361E08C2F0E947F
:10079000B600CF910895CF93DF93C9E0D0E0CC307D
:1007A000D10534F461E08C2F0E94B6002196F7CF7A
:1007B000DF91CF910895CF93C82F0E94CB0360E0C3
:1007C0008C2F0E94B600CF910895CF93DF930E94A3
:1007D000DB03C2E0D0E0C930D10534F460E08C2FF7
:1007E0000E94B6002196F7CFDF91CF910895CF9365
:1007F000DF930E94DB03C2E0D0E0C930D10534F4BE
:1008000061E08C2F0E94B6002196F7CFDF91CF9147
:1008100008950F931F93CF93DF938C01D0E0C0E036
:10082000C330D105A4F4C8010E94F70368EE73E059
:1008300080E090E00E949E01C8010E94E50364EF01
:1008400071E080E090E00E949E012196E9CFDF9167
:10085000CF911F910F9108950F931F93CF93DF9323
:1008600009E010E002C00F5F1F4F0C3011059CF42F
:10087000C8010E94DB03C2E0D0E0C930D1059CF77B
:10088000CE010E94C10368EE73E080E090E00E9418
:100890009E012196F2CFDF91CF911F910F91089584
:1008A0000E9481038230910591F044F083309105DC
:1008B00099F0049759F40E942C040895019729F4A3
:1008C00089E090E00E9409040895089508958AE05F
:1008D00090E00E94090408958BE090E00E940904D2
:1008E0000895CF93DF93D0E0C0E0CE30D10534F44B
:1008F00061E08C2F0E94E9002196F7CFD0E0C0E0A4
:10090000C430D1054CF4FE01E050FF4F62E080811D
:100910000E94E9002196F4CF26E040E855E260E02D
:1009200070E086E191E00E948402DF91CF9108950A
:100930001F920F920FB60F9211240F931F932F93B4
:100940003F934F935F936F937F938F939F93AF9357
:10095000BF930091B4011091B5012091B60130917F
:10096000B7019091B301B901A8014F5F5F4F6F4F7D
:100970007F4F83E0890F8D3740F086E8890FB901FA
:10098000A8014E5F5F4F6F4F7F4F8093B30140933D
:10099000B4015093B5016093B6017093B701809193
:1009A000B8019091B901A091BA01B091BB01019633
:1009B000A11DB11D8093B8019093B901A093BA0114
:1009C000B093BB01BF91AF919F918F917F916F9138
:1009D0005F914F913F912F911F910F910F900FBEFB
:1009E0000F901F9018950E943D010E9471040E9473
:1009F00050040E947503FBCF6FEF7FEF81E090E022
:100A00000E94070208951F920F920FB60F921124B1
:100A10002F933F934F935F936F937F938F939F9306
:100A2000AF93BF93EF93FF9386E191E00E94E602BC
:100A3000FF91EF91BF91AF919F918F917F916F91B6
:100A40005F914F913F912F910F900FBE0F901F908C
:100A500018951F920F920FB60F9211242F938F9318
:100A60009F93AF93BF93EF93FF93E0912601F09193
:100A70002701808182FD14C0E6E1F1E0A689B789F3
:100A80002C91818D8F5F8F73928D891771F0DF01AB
:100A9000E18DF0E0EA5EFE4F258F59968C9305C0FC
:100AA000E0912C01F0912D018081FF91EF91BF9198
:100AB000AF919F918F912F910F900FBE0F901F902C
:100AC0001895A1E21A2EAA1BBB1BFD010DC0AA1F7F
:100AD000BB1FEE1FFF1FA217B307E407F50720F0A7
:100AE000A21BB30BE40BF50B661F771F881F991F22
:100AF0001A9469F760957095809590959B01AC016B
:100B0000BD01CF010895EE0FFF1F0590F491E02D78
:060B10000994F894FFCFE8
:100B16000E0F1011000000000803D7013A0252031D
:060B26006D024B025F02AC
:00000001FF
