:100000000C945E000C9486000C9486000C94860080
:100010000C9486000C9486000C9486000C94860048
:100020000C9486000C9486000C9486000C94860038
:100030000C9486000C9486000C9486000C94860028
:100040000C94F8040C9486000C9489050C946305B8
:100050000C9486000C9486000C9486000C94860008
:100060000C9486000C948600496E76616C6964205D
:100070006461746520262074696D652100000000AC
:1000800000250028002B0000000000240027002A83
:100090000004040404040404040202020202020331
:1000A000030303030301020408102040800102043B
:1000B000081020010204081020005C0511241FBE56
:1000C000CFEFD8E0DEBFCDBF22E0AAE3B1E001C0B0
:1000D0001D92A330B207E1F711E0A0E0B1E0EEEA33
:1000E000F1E102C005900D92AA33B107D9F710E0F3
:1000F000CEE5D0E004C02197FE010E942E06CD354A
:10010000D107C9F70E9453050C94D5080C94000040
:100110000895CF93DF9390E0FC01EB55FF4F2491BE
:100120008F569F4FFC018491882319F190E0880F2E
:10013000991FFC01E957FF4FA591B491FC01E358C9
:10014000FF4FC591D491662349F06230A9F08FB773
:10015000F894EC91E22BEC938FBF0BC09FB7F8940F
:100160008C91E22FE0958E238C938881E823E8839D
:100170009FBFDF91CF9108959FB7F8943C91822F54
:10018000809583238C93E881E22BE8839FBFF1CF96
:10019000789484B5826084BD84B5816084BD85B562
:1001A000826085BD85B5816085BDEEE6F0E0808129
:1001B00081608083E1E8F0E010828081826080834A
:1001C000808181608083E0E8F0E0808181608083CD
:1001D000E1EBF0E0808184608083E0EBF0E08081FF
:1001E00081608083EAE7F0E08081846080838081A1
:1001F0008260808380818160808380818068808349
:100200001092C10008953FB7F8948091FF0190913A
:100210000002A0910102B091020226B5A89B05C080
:100220002F3F19F00196A11DB11D3FBFBA2FA92F75
:10023000982F8827BC01CD01620F711D811D911D72
:10024000660F771F881F991F660F771F881F991FDA
:1002500008958F929F92AF92BF92CF92DF92EF92CA
:10026000FF926B017C010E9403014B015C011BC0EA
:1002700021E0C21AD108E108F10888EE880E83E077
:10028000981EA11CB11CC114D104E104F10459F061
:100290000E940301681979098A099B09683E734025
:1002A0008105910528F7C114D104E104F10459F73F
:1002B000FF90EF90DF90CF90BF90AF909F908F9086
:1002C00008952FB7F8946091FB017091FC01809123
:1002D000FD019091FE012FBF08950895EF92FF92C6
:1002E0000F931F93CF93DF938C01FB01D0E0C0E00D
:1002F0007F018FEFE81AF80A6491662369F0D8014C
:10030000ED91FC910190F081E02DC8010995892BB8
:1003100019F02196F701ECCFCE01DF91CF911F911B
:100320000F91FF90EF900895CF92DF92EF92FF929E
:100330000F931F93CF93DF938C01DB01D0E0C0E0DC
:100340007A0181E0E81AF108452BA1F0F8018081DB
:100350009181FC01208131816D01FFEFCF1ADF0A0D
:100360006C91C801F9010995892B21F02196A7010B
:10037000D601E6CFCE01DF91CF911F910F91FF9073
:10038000EF90DF90CF900895019709F008956F3FA7
:100390007F4FE1F7EDE5F1E01382128288EE93E002
:1003A000A0E0B0E084839583A683B78388E091E0E2
:1003B0009183808385EC90E09587848784EC90E03E
:1003C0009787868780EC90E0918B808B81EC90E022
:1003D000938B828B82EC90E0958B848B86EC90E003
:1003E000978B868B118E128E138E148ECFCFFC01BD
:1003F000938D848D981720F4891B990B019708958C
:100400002FE330E0291B3109820F932F911D0895AE
:10041000FC01918D828D981761F0A28DAE0FBF2FD8
:10042000B11D5D968C91928D9F5F9F73928F90E02E
:1004300008958FEF9FEF0895FC01918D828D98179D
:1004400031F0828DE80FF11D858D90E008958FEFDA
:100450009FEF0895FC01218D30E0205C3F4F828D9D
:10046000A901481B5109CA018F73992708958DE589
:1004700091E00E942A0221E0892B09F420E0822FDA
:100480000895CF92DF92EF92FF921F93CF93DF9365
:10049000EC016A017B01122F60E079E08DE390E0CE
:1004A000A70196010E940C0621503109410951090A
:1004B0005695479537952795E889F98982E0808395
:1004C000C11481EED806E104F10421F0211580E188
:1004D000380798F0E889F989108260E874E88EE1BD
:1004E00090E0A70196010E940C06215031094109B4
:1004F00051095695479537952795EC85FD853083AD
:10050000EE85FF852083188EEC89FD891083EA89AA
:10051000FB89808180618083EA89FB898081886092
:100520008083EA89FB89808180688083EA89FB89EE
:1005300080818F7D8083DF91CF911F91FF90EF901D
:10054000DF90CF900895FC01A48DA80FB92FB11DA5
:10055000A35ABF4F2C91848D90E001968F739078B1
:10056000848FA689B7892C93A089B1898C918370D7
:1005700080648C93938D848D981308950288F389F9
:10058000E02D80818F7D8083F8CF0F931F93CF93D1
:10059000DF93EC0181E0888F9B8D8C8D9817B1F0F3
:1005A000062F8B8D90E001968F739078182F8C8D8D
:1005B00081131EC00FB607FCFACFE889F989808144
:1005C00085FFF5CFCE010E94A302F1CFE889F9891A
:1005D000808185FFE5CF9FB7F894EE89FF8960831E
:1005E000E889F98980818370806480839FBF10C00F
:1005F000EB8DEC0FFD2FF11DE35AFF4F00839FB7EA
:10060000F8941B8FEA89FB898081806280839FBF79
:1006100081E090E0DF91CF911F910F910895CF93EA
:10062000DF93EC01888D811104C00DC00FB607FE69
:100630000DC0EA89FB89808185FDF8CFA889B98939
:100640008C9186FFF3CFDF91CF910895808185FF54
:10065000F0CFE889F989808185FFEBCFCE010E9438
:10066000A302E7CF80E090E0892B21F00E943702BF
:10067000811101C008950E940000FCCF0F931F93C9
:1006800061110CC0FA018081918164E670E00E94E2
:10069000F805F90180831F910F91089510E00C5E19
:1006A0001F4F84E6809FB001819F700D1124F901D6
:1006B0008081860F972F911DFA0191838083EBCF64
:1006C0006115710581F0FB0101900020E9F7319778
:1006D000AF01461B570BDC01ED91FC910280F381C9
:1006E000E02D0995089590E080E00895DC01ED91FA
:1006F000FC910280F381E02D42E050E066E171E080
:10070000099508950F931F93CF93DF93EC010E94F7
:1007100060038C01CE010E947603800F911FDF9150
:10072000CF911F910F9108950F931F93CF93DF9354
:10073000EC010E946E018C01CE010E947603800FB5
:10074000911FDF91CF911F910F9108956F927F922A
:100750008F92AF92CF92EF920F931F93CF93DF932D
:1007600000D01F92CDB7DEB73C013B832A83102F08
:100770008FEF860F8F3108F07DC0442309F47AC0D3
:100780004D3008F077C08BE38E1508F473C08C15DC
:1007900008F470C0882009F46AC08FEF800F8C3095
:1007A00008F068C0842F8295880F807E6F71682B57
:1007B000F301658343FB442740F986818E7F482BF4
:1007C00046832A813B8181E02433384008F480E06D
:1007D000F301018580FB01F90187069501709E01F7
:1007E0002F5F3F4FAE014E5F5F4F60E0C3010E943D
:1007F0003E038981982F990FF30186818170892B9F
:1008000086839E2D9295990F907E87818F71892B7B
:100810008783E694E694E6948C2D880F880F880FE2
:10082000FE2DF770EF2EE82AF301E086C5FACC24FE
:10083000C0F881858E7FC82AC186882029F0AA2029
:1008400089F11C3078F5145F1F71F3018781807E78
:10085000182B17830E946101F301618372838383E4
:1008600094838081816080FA81F980830DC0083192
:1008700008F498CF68E670E08DE591E00E9494035B
:10088000F30180818E7F80830F900F900F90DF9116
:10089000CF911F910F91EF90CF90AF908F907F905D
:1008A0006F900895A110D0CF1C3071F610E0CCCF1E
:1008B0008F92AF92CF92EF920F93CF93DF9326E078
:1008C00040E855E260E070E08DE591E00E94410271
:1008D000D0E0C0E0CE30D10534F461E08C2F0E942E
:1008E00089002196F7CFD0E0C0E0C430D1054CF4A8
:1008F000FE01E050FF4F62E080810E948900219656
:10090000F4CF812CA12C0F2EFDE2CF2EF02D0F2E37
:10091000F6E3EF2EF02D0CE02AEE37E045E068E03C
:100920008AE391E00E94A603DF91CF910F91EF90AF
:10093000CF90AF908F900895CF93DF93D0E0C0E039
:10094000CC33D1050CF04BC0CE01817099279F9319
:100950008F938C2F869581701F928F93C2FB88276F
:1009600080F91F928F93C3FB882780F91F928F9382
:100970008C2F829581701F928F93C5FB882780F9F9
:100980001F928F93C6FB882780F91F928F93DF9366
:10099000CF9389E191E09F938F9384E491E09F93BB
:1009A0008F930E94340664E471E08DE591E00E942B
:1009B000820368E171E08DE591E00E94820364EFBB
:1009C00071E080E090E00E94290121968DB79EB7EA
:1009D00044960FB6F8949EBF0FBE8DBFB1CF68EEA0
:1009E00073E080E090E00E942901DF91CF910895AB
:1009F0001F920F920FB60F9211240F931F932F93F4
:100A00003F934F935F936F937F938F939F93AF9396
:100A1000BF930091FB011091FC012091FD013091E9
:100A2000FE019091FA01B901A8014F5F5F4F6F4F2E
:100A30007F4F83E0890F8D3740F086E8890FB90139
:100A4000A8014E5F5F4F6F4F7F4F8093FA01409335
:100A5000FB015093FC016093FD017093FE018091B6
:100A6000FF0190910002A0910102B0910202019653
:100A7000A11DB11D8093FF0190930002A09301027C
:100A8000B0930202BF91AF919F918F917F916F912F
:100A90005F914F913F912F911F910F910F900FBE3A
:100AA0000F901F9018950E94C8000E9458040E9441
:100AB0009C040E943203FBCF6FEF7FEF81E090E058
:100AC0000E94C40108951F920F920FB60F92112435
:100AD0002F933F934F935F936F937F938F939F9346
:100AE000AF93BF93EF93FF938DE591E00E94A30234
:100AF000FF91EF91BF91AF919F918F917F916F91F6
:100B00005F914F913F912F910F900FBE0F901F90CB
:100B100018951F920F920FB60F9211242F938F9357
:100B20009F93AF93BF93EF93FF93E0916D01F0918B
:100B30006E01808182FD14C0EDE5F1E0A689B789E0
:100B40002C91818D8F5F8F73928D891771F0DF01EA
:100B5000E18DF0E0E35AFE4F258F59968C9305C046
:100B6000E0917301F09174018081FF91EF91BF9149
:100B7000AF919F918F912F910F900FBE0F901F906B
:100B800018952F923F924F925F926F927F928F9221
:100B90009F92AF92BF92CF92DF92EF92FF920F930C
:100BA0001F93CF93DF93CDB7DEB7CA1BDB0B0FB616
:100BB000F894DEBF0FBECDBF09942A8839884888D3
:100BC0005F846E847D848C849B84AA84B984C88469
:100BD000DF80EE80FD800C811B81AA81B981CE0F60
:100BE000D11D0FB6F894DEBF0FBECDBFED01089545
:100BF000AA1BBB1B51E107C0AA1FBB1FA617B70743
:100C000010F0A61BB70B881F991F5A95A9F780955E
:100C10009095BC01CD010895A1E21A2EAA1BBB1B21
:100C2000FD010DC0AA1FBB1FEE1FFF1FA217B307B8
:100C3000E407F50720F0A21BB30BE40BF50B661FCE
:100C4000771F881F991F1A9469F760957095809592
:100C500090959B01AC01BD01CF010895EE0FFF1FE0
:100C60000590F491E02D0994AEE0B0E0EAE3F6E0FF
:100C70000C94CF050D891E8986E08C831A83098325
:100C80008FEF9FE79E838D83AE01475E5F4F6F8935
:100C9000788DCE0101960E9457062F813885020F6C
:100CA000131FF80110822E96E4E00C94EB05ABE0E4
:100CB000B0E0EDE5F6E00C94C1057C013B018A0152
:100CC000FC0117821682838181FFC8C1CE01019683
:100CD0005C01F7019381F30193FD859193FF81916D
:100CE0003F01882309F453C1853239F493FD85917E
:100CF00093FF81913F01853229F4B70190E00E9472
:100D00004708E7CF912C212C312CFFE1F31538F067
:100D10008B3211F190F4803209F1833229F137FCE2
:100D20003CC020ED280F2A3050F536FE20C08AE066
:100D3000989E200D1124922E06C08D3291F08033A2
:100D400071F7689430F8F30193FD859193FF8191D9
:100D50003F018111DACF21C0689431F8689432F8EC
:100D6000F2CF689433F8EFCF689434F8ECCFEAE030
:100D70002E9E200D1124222E689435F8E4CF8E3259
:100D800029F436FC04C1689436F8DDCF8C3619F4AA
:100D9000689437F8D8CF8836B1F2982F9F7D955454
:100DA0009330E0F08336A1F18337C1F1833509F048
:100DB00063C02801F2E04F0E511CF801C080D180C1
:100DC000692D70E036FC02C06FEF7FEFC6010E9414
:100DD00031084C01689437F882010AC00C5F1F4F3C
:100DE000FFE3F98388248394912C6501E89437F814
:100DF00033FE2DC0522C8114910471F5552009F455
:100E000068CFB70180E290E00E9447085A94F6CF7D
:100E1000F801808189830E5F1F4FE4CF2801F2E043
:100E20004F0E511CF801C080D180692D70E036FC56
:100E300002C06FEF7FEFC6010E943C084C018201A7
:100E4000D5CFB70180E290E00E9447082A94281489
:100E5000190409F0B0F7CECFF60137FC859137FEC3
:100E600081916F01B70190E00E94470851105A9498
:100E7000F1E08F1A9108BFCF843619F0893609F056
:100E800077C0F80137FE6BC06081718182819381E8
:100E90000C5F1F4FF32DFF763F2E97FF09C09095F3
:100EA0008095709561957F4F8F4F9F4F689437F86D
:100EB0002AE030E0A5010E947708C82ECA188C2CC1
:100EC000432C36FE0CC0E89440F8C91440F434FEBC
:100ED00005C032FC03C0F32DFE7E4F2E892C44FE4C
:100EE00095C0FE01EC0DF11D8081803309F087C0B3
:100EF000242D297E422E842D8870582E43FC95C0C7
:100F000040FE8FC09C2C821418F42C0C922C981844
:100F100044FE91C0B70180E390E00E94470842FE82
:100F200009C088E790E041FE02C088E590E0B70183
:100F30000E944708C91408F48AC0CA94D12C9FEFB4
:100F4000C91AD90ACA0CDB1CF60182916F01B701DC
:100F500090E00E944708AC14BD04B1F74FCF608108
:100F60007181072E000C880B990B0E5F1F4F92CFDB
:100F7000D32CE894D4F82AE030E0853739F1232DDA
:100F8000297FD22E8F3601F148F48835A9F0F70178
:100F9000868197812B96E2E10C94DD05803749F03C
:100FA0008837A9F7D4FE02C06894D2F820E130E077
:100FB0000DC06894D4F8F6CF34FE03C0822F86604B
:100FC000D82E20E132E002C028E030E0F801D7FE60
:100FD0000FC060817181828193810C5F1F4FA501D9
:100FE0000E947708C82ECA183D2CE89437F867CFBE
:100FF0006081718190E080E00E5F1F4FF0CF42FC76
:1010000002C0839478CF8394839475CF842D86789F
:1010100009F471CFF6CFB70180E290E00E94470853
:1010200083948214C0F3512C73CF522C581882141D
:1010300008F46ECFF8CF842D867809F47BCF8BE24D
:1010400041FE80E247FC8DE2B70190E071CFB7012D
:1010500080E390E00E9447089A946CCF8FEF9FEF57
:1010600099CFFC010590615070400110D8F7809530
:1010700090958E0F9F1F0895FC0161507040019064
:101080000110D8F7809590958E0F9F1F08950F93AC
:101090001F93CF93DF93182F092FEB018B8181FDD5
:1010A00009C01FEF0FEF812F902FDF91CF911F917C
:1010B0000F91089582FF14C02E813F818C819D8104
:1010C000281739073CF4E881F981CF01019699830B
:1010D000888310838E819F8101969F838E83E3CFC7
:1010E000E885F985812F0995892BA1F3DACFFA01DB
:1010F000AA27283051F1203181F1E8946F936E7F57
:101100006E5F7F4F8F4F9F4FAF4FB1E03ED0B4E047
:101110003CD0670F781F891F9A1FA11D680F791F88
:101120008A1F911DA11D6A0F711D811D911DA11D99
:1011300020D009F468943F912AE0269F11243019A9
:10114000305D3193DEF6CF010895462F4770405D44
:101150004193B3E00FD0C9F7F6CF462F4F70405DF3
:101160004A3318F0495D31FD4052419302D0A9F74E
:10117000EACFB4E0A6959795879577956795BA9548
:10118000C9F700976105710508959B01AC010A2E0E
:1011900006945795479537952795BA95C9F7620FE5
:0E11A000731F841F951FA01D0895F894FFCFA4
:1011AE000E0F101100000000C5029401F7010F038D
:1011BE002A0208021C020D0A00256420696E2062B4
:1011CE00696E617279206973202564256425642017
:0A11DE0025642564256425640000E3
:00000001FF
