:100000000C945E000C9486000C9486000C94860080
:100010000C9486000C9486000C9486000C94860048
:100020000C9486000C9486000C9486000C94860038
:100030000C9486000C9486000C9486000C94860028
:100040000C9418080C9486000C94A9080C9483084E
:100050000C9486000C9486000C9486000C94860008
:100060000C9486000C948600496E76616C6964205D
:100070006461746520262074696D652100000000AC
:1000800000250028002B0000000000240027002A83
:100090000004040404040404040202020202020331
:1000A000030303030301020408102040800102043B
:1000B000081020010204081020007C0811241FBE33
:1000C000CFEFD8E0DEBFCDBF21E0A6E3B1E001C0B5
:1000D0001D92A03FB207E1F711E0A0E0B1E0E4E833
:1000E000F2E102C005900D92A633B107D9F710E0F6
:1000F000CEE5D0E004C02197FE010E943A09CD353B
:10010000D107C9F70E9473080C9440090C940000B1
:100110000895CF93DF9390E0FC01EB55FF4F2491BE
:100120008F569F4FFC018491882319F190E0880F2E
:10013000991FFC01E957FF4FA591B491FC01E358C9
:10014000FF4FC591D491662349F06230A9F08FB773
:10015000F894EC91E22BEC938FBF0BC09FB7F8940F
:100160008C91E22FE0958E238C938881E823E8839D
:100170009FBFDF91CF9108959FB7F8943C91822F54
:10018000809583238C93E881E22BE8839FBFF1CF96
:100190008E3008F08E508770806480937C00EAE790
:1001A000F0E080818064808380917A0086FDFCCFBE
:1001B00080917800909179000895789484B5826058
:1001C00084BD84B5816084BD85B5826085BD85B5FB
:1001D000816085BDEEE6F0E0808181608083E1E8AA
:1001E000F0E01082808182608083808181608083E2
:1001F000E0E8F0E0808181608083E1EBF0E08081E5
:1002000084608083E0EBF0E0808181608083EAE7B6
:10021000F0E080818460808380818260808380813F
:10022000816080838081806880831092C1000895FE
:100230003FB7F8948091EC019091ED01A091EE010F
:10024000B091EF0126B5A89B05C02F3F19F001968C
:10025000A11DB11D3FBFBA2FA92F982F8827BC0120
:10026000CD01620F711D811D911D660F771F881FC3
:10027000991F660F771F881F991F08958F929F926D
:10028000AF92BF92CF92DF92EF92FF926B017C010F
:100290000E9418014B015C011BC021E0C21AD10869
:1002A000E108F10888EE880E83E0981EA11CB11CBD
:1002B000C114D104E104F10459F00E941801681935
:1002C00079098A099B09683E73408105910528F7E1
:1002D000C114D104E104F10459F7FF90EF90DF90CD
:1002E000CF90BF90AF909F908F9008952FB7F894C4
:1002F0006091E8017091E9018091EA019091EB0130
:100300002FBF08950895EF92FF920F931F93CF93FD
:10031000DF938C01FB01D0E0C0E07F018FEFE81A92
:10032000F80A6491662369F0D801ED91FC9101907F
:10033000F081E02DC8010995892B19F02196F7016C
:10034000ECCFCE01DF91CF911F910F91FF90EF90F5
:100350000895CF92DF92EF92FF920F931F93CF9366
:10036000DF938C01DB01D0E0C0E07A0181E0E81A84
:10037000F108452BA1F0F80180819181FC012081D9
:1003800031816D01FFEFCF1ADF0A6C91C801F901CD
:100390000995892B21F02196A701D601E6CFCE0140
:1003A000DF91CF911F910F91FF90EF90DF90CF9051
:1003B0000895019709F008956F3F7F4FE1F7EAE450
:1003C000F1E01382128288EE93E0A0E0B0E0848333
:1003D0009583A683B78384E191E09183808385EC44
:1003E00090E09587848784EC90E09787868780ECFF
:1003F00090E0918B808B81EC90E0938B828B82ECF0
:1004000090E0958B848B86EC90E0978B868B118E99
:10041000128E138E148ECFCFFC01938D848D98177E
:1004200020F4891B990B019708952FE330E0291BD5
:100430003109820F932F911D0895FC01918D828DBA
:10044000981761F0A28DAE0FBF2FB11D5D968C91F4
:10045000928D9F5F9F73928F90E008958FEF9FEF33
:100460000895FC01918D828D981731F0828DE80FEF
:10047000F11D858D90E008958FEF9FEF0895FC01A9
:10048000218D30E0205C3F4F828DA901481B51092E
:10049000CA018F73992708958AE491E00E943F0270
:1004A00021E0892B09F420E0822F0895CF92DF927A
:1004B000EF92FF921F93CF93DF93EC016A017B01D0
:1004C000122F60E079E08DE390E0A70196010E9491
:1004D000040921503109410951095695479537952D
:1004E0002795E889F98982E08083C11481EED806D6
:1004F000E104F10421F0211580E1380798F0E88942
:10050000F989108260E874E88EE190E0A701960115
:100510000E94040921503109410951095695479516
:1005200037952795EC85FD853083EE85FF85208303
:10053000188EEC89FD891083EA89FB8980818061AE
:100540008083EA89FB89808188608083EA89FB89CE
:10055000808180688083EA89FB8980818F7D8083A8
:10056000DF91CF911F91FF90EF90DF90CF90089592
:10057000FC01A48DA80FB92FB11DA35ABF4F2C9118
:10058000848D90E001968F739078848FA689B789C7
:100590002C93A089B1898C91837080648C93938D06
:1005A000848D981308950288F389E02D80818F7DD2
:1005B0008083F8CF0F931F93CF93DF93EC0181E0FB
:1005C000888F9B8D8C8D9817B1F0062F8B8D90E0C6
:1005D00001968F739078182F8C8D81131EC00FB6E3
:1005E00007FCFACFE889F989808185FFF5CFCE0134
:1005F0000E94B802F1CFE889F989808185FFE5CFB3
:100600009FB7F894EE89FF896083E889F989808132
:100610008370806480839FBF10C0EB8DEC0FFD2F33
:10062000F11DE35AFF4F00839FB7F8941B8FEA89AF
:10063000FB898081806280839FBF81E090E0DF91B1
:10064000CF911F910F910895CF93DF93EC01888D87
:10065000811104C00DC00FB607FE0DC0EA89FB89E9
:10066000808185FDF8CFA889B9898C9186FFF3CF69
:10067000DF91CF910895808185FFF0CFE889F989D6
:10068000808185FFEBCFCE010E94B802E7CF80E0EA
:1006900090E0892B21F00E944C02811101C0089545
:1006A0000E940000FCCF0F931F93F90161111BC042
:1006B000DA014D915C919A013695279536952795EB
:1006C000ABE7B4E10E94E1089695879564E6689FE0
:1006D0009001699F300D1124CA01821B930B808306
:1006E0001F910F91089510E00C5E1F4F84E6809FCC
:1006F0009001819F300D11248081820F932F911DD5
:10070000DA018D939C93ECCF2F923F924F925F92A0
:100710006F927F928F929F92AF92BF92CF92DF9211
:10072000EF92FF920F931F93CF93DF93CDB7DEB776
:100730002F970FB6F894DEBF0FBECDBF3C012B0143
:100740005A0149011801FF86EE868CE0E0E0F1E0F5
:10075000DE01119601900D928A95E1F70E947601D3
:10076000D30111962D913D914D915C911497621B8F
:10077000730B840B950B28EE33E040E050E00E94B1
:100780000409F3018085982F969596959695818515
:1007900081708295880F807E892B79018A01E80E0D
:1007A000F11C011D111DC801B7012CE330E040E030
:1007B00050E00E940409D6016C93F3018781982FC1
:1007C00092959695977080858770880F880F880F0F
:1007D000892B79018A01E80EF11C011D111DC80148
:1007E000B7012CE330E040E050E00E940409AE8500
:1007F000BF856C93F30187818F7179018A01E80EBF
:10080000F11C011D111DC801B70128E130E040E0D5
:1008100050E00E940409D1016C93C22ED32EE42E25
:10082000F52EF301868186958D87018506950170E9
:100830009E01235F3F4FA20161E0C3010E94530369
:10084000D30115968C911597982F92959695977040
:1008500016968C9116978170880F880F880F892BB8
:10086000F501808315968C918F71D4018C93C114FE
:10087000D104E104F10409F470C0F5019081092F5D
:100880000150110BF80121E030E02C0F3D1FE20F69
:10089000F31FE491923029F1D4012C918E2F821B09
:1008A0008F5F90E0B0E0A0E0C816D906EA06FB062C
:1008B00008F450C0C81AD90AEA0AFB0A81E0D40138
:1008C0008C93F50180818F5F80838D3080F281E091
:1008D0008083D2018D919C91119701968D939C9369
:1008E000C6CFD2014D915C91CA0183709927892BA3
:1008F000A1F49A013695279536952795ABE7B4E193
:100900000E94E1089695879564E6689F9001699F2B
:10091000300D112442175307D9F49A0132952295CC
:100920002F7023273F702327AEE3BAE00E94E1082F
:1009300020E931E08C01029FC001039F900D129FBE
:10094000900D11244817590709F0A6CFEDE1A4CF67
:10095000EDE1A2CFC20EF401C082F50180818230A8
:10096000C9F02F960FB6F894DEBF0FBECDBFDF9152
:10097000CF911F910F91FF90EF90DF90CF90BF909C
:10098000AF909F908F907F906F905F904F903F902F
:100990002F900895D4018C918D3119F7F201408187
:1009A0005181CA0183709927892BA1F49A01369548
:1009B000279536952795ABE7B4E10E94E108969517
:1009C000879564E6689F9001699F300D1124421756
:1009D000530739F69A01329522952F7023273F70DD
:1009E0002327AEE3BAE00E94E10820E931E07C0170
:1009F000E29EC001E39E900DF29E900D11244817D7
:100A0000590709F4AECF81E0D4018C9383E0F5015E
:100A10008083A7CF2F923F924F925F926F927F92E7
:100A20008F929F92AF92BF92CF92DF92EF92FF92FE
:100A30000F931F93CF93DF9300D000D0CDB7DEB7D5
:100A4000DC01EC91E0FD17C00F900F900F900F901C
:100A5000DF91CF911F910F91FF90EF90DF90CF909A
:100A6000BF90AF909F908F907F906F905F904F90CE
:100A70003F902F900895BC82AB82580139012A0122
:100A80001B019A8389839B01B3010E948403E9813E
:100A9000FA81808181FF62C0D8019C9181E09C3005
:100AA00008F480E0EB81FC818083D5018C91811179
:100AB0004EC08CE08C9381E0D4018C93D3012D91B6
:100AC0003C91D201EC91D1014C9181E090E0E33076
:100AD00010F090E080E0281B390B8901B9010AF47D
:100AE00040C07595679575956795260F371FC801A6
:100AF0006CE97FEF0E94F008260F371FC80160E9FC
:100B000071E00E94F008260F371F6E2F70E0E3306F
:100B100058F58CE090E0680F791F62507109240F3E
:100B2000311D4FE1469FC001479F900D11246CE09D
:100B300070E00E94F008C901860F971F67E070E01F
:100B40000E94F0088F5FE98DFA8D80837DCF8D3014
:100B500008F4B1CF8C50F5018083ADCFF401108241
:100B6000ADCF6D5F7F4FBDCF90E080E0D4CFCF930E
:100B7000DF9368EE73E080E090E00E943E018EE03B
:100B80000E94C800883C9105E4F0D0E0C0E08FE00E
:100B90000E94C800883C910514F4C2E0D0E080E1D6
:100BA0000E94C800883C910514F4C3E0D0E081E1C4
:100BB0000E94C800883C91053CF0CE01DF91CF91A6
:100BC0000895C1E0D0E0E3CFC4E0D0E0F6CFDF92FB
:100BD000EF92FF920F931F93CF93DF93CDB7DEB7C2
:100BE000A1970FB6F894DEBF0FBECDBF7C01CB013D
:100BF000BA01D22E19A221E02D1520F48E010F5D2D
:100C00001F4F0EC00F2EFAE0DF2EF02DF7CFE95C5C
:100C1000D801EE938D01611571058105910579F07B
:100C20002D2D30E050E040E00E940409E62F622FB5
:100C3000732F842F952FEA3054F7E05DE9CF10979A
:100C4000F9F0FD0101900020E9F73197AF014A1B4F
:100C50005B0BD701ED91FC910280F381E02DB8018F
:100C6000C7010995A1960FB6F894DEBF0FBECDBFA0
:100C7000DF91CF911F910F91FF90EF90DF9008953A
:100C800090E080E0EFCF2115310549F4DC01ED91D2
:100C9000FC910190F081E02D642F099508950E9448
:100CA000E70508959A01462F50E070E060E00E9449
:100CB00043060895DC01ED91FC910280F381E02D63
:100CC00042E050E062E271E0099508950F931F93AE
:100CD000CF93DF93EC010E9452068C01CE010E945B
:100CE0005A06800F911FDF91CF911F910F910895A8
:100CF0000F931F93CF93DF93EC010E9483018C012C
:100D0000CE010E945A06800F911FDF91CF911F9153
:100D10000F9108956F927F928F92AF92CF92EF9240
:100D20000F931F93CF93DF9300D01F92CDB7DEB701
:100D30003C013B832A83102F8FEF860F8F3108F001
:100D40007DC0442309F47AC04D3008F077C08BE3AE
:100D50008E1508F473C08C1508F470C0882009F44F
:100D60006AC08FEF800F8C3008F068C0842F8295A6
:100D7000880F807E6F71682BF301658343FB4427E6
:100D800040F986818E7F482B46832A813B8181E012
:100D90002433384008F480E0F301018580FB01F939
:100DA0000187069501709E012F5F3F4FAE014E5F98
:100DB0005F4F60E0C3010E9453038981982F990F10
:100DC000F30186818170892B86839E2D9295990FE0
:100DD000907E87818F71892B8783E694E694E694D1
:100DE0008C2D880F880F880FFE2DF770EF2EE82AC4
:100DF000F301E086C5FACC24C0F881858E7FC82A2D
:100E0000C186882029F0AA2089F11C3078F5145F6A
:100E10001F71F3018781807E182B17830E94760152
:100E2000F30161837283838394838081816080FA7C
:100E300081F980830DC0083108F498CF68E670E02E
:100E40008AE491E00E947806F30180818E7F80839E
:100E50000F900F900F90DF91CF911F910F91EF9016
:100E6000CF90AF908F907F906F900895A110D0CFCA
:100E70001C3071F610E0CCCF6115710581F0FB01DB
:100E800001900020E9F73197AF01461B570BDC01B9
:100E9000ED91FC910280F381E02D0995089590E099
:100EA00080E008950F931F93CF93DF93EC010E948E
:100EB0003C078C01CE010E945A06800F911FDF91E2
:100EC000CF911F910F9108958F929F92AF92BF92F1
:100ED000CF92DF92EF92FF920F931F9386E391E000
:100EE0009F938F930F2EF7E38F2EF1E09F2EF02D1F
:100EF0000F2EF8E3AF2EF1E0BF2EF02D0F2EF9E309
:100F0000CF2EF1E0DF2EF02D0F2EFAE3EF2EF1E0E1
:100F1000FF2EF02D0BE311E02CE331E04EE351E026
:100F20006FE371E080E491E00E940A0565E271E000
:100F30008AE491E00E9452074AE050E060913B0150
:100F40008AE491E00E9466064AE050E060913A012E
:100F50008AE491E00E9466064AE050E0609139011F
:100F60008AE491E00E94660664E271E08AE491E01E
:100F70000E9452070F900F901F910F91FF90EF90DA
:100F8000DF90CF90BF90AF909F908F9008950E9478
:100F9000B70568EE73E080E090E00E943E010E9499
:100FA000640708958F92AF92CF92EF920F93CF93F1
:100FB000DF9326E040E855E260E070E08AE491E0EB
:100FC0000E945602D0E0C0E0CE30D10534F461E09A
:100FD0008C2F0E9489002196F7CFD0E0C0E0C4306A
:100FE000D1054CF4FE01E45FFE4F62E080810E9477
:100FF00089002196F4CF812CA12C0F2EFDE2CF2E5B
:10100000F02D0F2EF6E3EF2EF02D0CE02AEE37E058
:1010100045E068E080E491E00E948A060E9464074F
:10102000DF91CF910F91EF90CF90AF908F90089577
:101030001F920F920FB60F9211240F931F932F93AD
:101040003F934F935F936F937F938F939F93AF9350
:10105000BF930091E8011091E9012091EA013091DC
:10106000EB019091E701B901A8014F5F5F4F6F4F0E
:101070007F4F83E0890F8D3740F086E8890FB901F3
:10108000A8014E5F5F4F6F4F7F4F8093E701409302
:10109000E8015093E9016093EA017093EB018091BC
:1010A000EC019091ED01A091EE01B091EF0101965C
:1010B000A11DB11D8093EC019093ED01A093EE0171
:1010C000B093EF01BF91AF919F918F917F916F91FD
:1010D0005F914F913F912F911F910F910F900FBEF4
:1010E0000F901F9018950E94DD000E94D2070E9469
:1010F000C7070E944703FBCF6FEF7FEF81E090E0CF
:101100000E94D90108951F920F920FB60F921124D9
:101110002F933F934F935F936F937F938F939F93FF
:10112000AF93BF93EF93FF938AE491E00E94B802DC
:10113000FF91EF91BF91AF919F918F917F916F91AF
:101140005F914F913F912F910F900FBE0F901F9085
:1011500018951F920F920FB60F9211242F938F9311
:101160009F93AF93BF93EF93FF93E0915A01F09158
:101170005B01808182FD14C0EAE4F1E0A689B789B1
:101180002C91818D8F5F8F73928D891771F0DF01A4
:10119000E18DF0E0E65BFE4F258F59968C9305C0FC
:1011A000E0916001F09161018081FF91EF91BF9129
:1011B000AF919F918F912F910F900FBE0F901F9025
:1011C0001895A29FB001B39FC001A39F700D811D10
:1011D0001124911DB29F700D811D1124911D089540
:1011E00097FB072E16F4009407D077FD09D00E94D4
:1011F000260907FC05D03EF4909581959F4F0895F0
:10120000709561957F4F0895A1E21A2EAA1BBB1B12
:10121000FD010DC0AA1FBB1FEE1FFF1FA217B307C2
:10122000E407F50720F0A21BB30BE40BF50B661FD8
:10123000771F881F991F1A9469F76095709580959C
:1012400090959B01AC01BD01CF010895AA1BBB1B6A
:1012500051E107C0AA1FBB1FA617B70710F0A61BB6
:10126000B70B881F991F5A95A9F780959095BC01D7
:10127000CD010895EE0FFF1F0590F491E02D099424
:04128000F894FFCF10
:101284001F1C1F1E1F1E1F1F1E1F1E1F0E0F1011AF
:1012940000000000DA02A9010C0224033F021D022F
:1012A40031020D0A005468652074696D6520697304
:0612B400206E6F773A0086
:00000001FF
