:100000000C945C000C9479000C9479000C947900A9
:100010000C9479000C9479000C9479000C9479007C
:100020000C9479000C9479000C9479000C9479006C
:100030000C9479000C9479000C9479000C9479005C
:100040000C94C1020C9479000C9479000C94790002
:100050000C9479000C9479000C9479000C9479003C
:100060000C9479000C947900000000002400270013
:100070002A0000000000250028002B0004040404CE
:100080000404040402020202020203030303030342
:10009000010204081020408001020408102001021F
:1000A00004081020000000080002010000030407FB
:1000B000000000000000000011241FBECFEFD8E0B8
:1000C000DEBFCDBF11E0A0E0B1E0E6E5F6E002C0A2
:1000D00005900D92A830B107D9F721E0A8E0B1E072
:1000E00001C01D92A131B207E1F70E941C030C94DC
:1000F00029030C94000008958330B1F060F087303C
:10010000E9F0883009F1843021F5E0E8F0E0808101
:100110008F7D80830895813069F0823021F484B529
:100120008F7D84BD08950895E0E8F0E080818F77A9
:100130008083089584B58F7784BD0895E0EBF0E067
:1001400080818F7780830895E0EBF0E080818F7D60
:10015000808308951F93CF93DF93282F30E0F90118
:10016000EC55FF4F8491F901E057FF4F1491F901CD
:10017000E458FF4FC491CC23A9F0D62F811116C0AB
:10018000EC2FF0E0EE0FFF1FEE58FF4FA591B4915A
:100190008FB7F894D1110DC09C91E12FE095E92320
:1001A000EC938FBFDF91CF911F9108950E947C0047
:1001B000E7CFEC91E12BEC93F4CFCF93DF9390E07A
:1001C000FC01E057FF4F249184589F4FFC0184911C
:1001D000882319F190E0880F991FFC01E859FF4F1F
:1001E000A591B491FC01EE58FF4FC591D4916623BF
:1001F00049F06230A9F08FB7F894EC91E22BEC93C0
:100200008FBF0BC09FB7F8948C91E22FE0958E239F
:100210008C938881E823E8839FBFDF91CF91089575
:100220009FB7F8943C91822F809583238C93E8812B
:10023000E22BE8839FBFF1CF8E3008F08E5087709D
:10024000806480937C00EAE7F0E0808180648083B2
:1002500080917A0086FDFCCF8091780090917900A2
:100260000895789484B5826084BD84B5816084BD2E
:1002700085B5826085BD85B5816085BDEEE6F0E01F
:10028000808181608083E1E8F0E01082808182607B
:100290008083808181608083E0E8F0E080818160FC
:1002A0008083E1EBF0E0808184608083E0EBF0E02C
:1002B000808181608083EAE7F0E0808184608083D0
:1002C000808182608083808181608083808180687A
:1002D00080831092C10008953FB7F89480910D017A
:1002E00090910E01A0910F01B091100126B5A89B2D
:1002F00005C02F3F19F00196A11DB11D3FBFBA2FB8
:10030000A92F982F8827BC01CD01620F711D811D77
:10031000911D660F771F881F991F660F771F881F13
:10032000991F08958F929F92AF92BF92CF92DF92C2
:10033000EF92FF926B017C010E946C014B015C010A
:100340001BC021E0C21AD108E108F10888EE880E2E
:1003500083E0981EA11CB11CC114D104E104F10476
:1003600059F00E946C01681979098A099B09683E55
:1003700073408105910528F7C114D104E104F1040B
:1003800059F7FF90EF90DF90CF90BF90AF909F9084
:100390008F9008950895CF93DF93D0E0C0E0C430EC
:1003A000D1055CF4FE01EC5FFE4F80810E941C01D0
:1003B000883C910524F02196F2CFD0E0C0E0CE0138
:1003C000DF91CF910895CF93DF93C2E0D0E0C930A1
:1003D000D10534F460E08C2F0E94AA002196F7CF5B
:1003E000DF91CF910895CF93C82F0E94E30161E080
:1003F0008C2F0E94AA00CF910895CF93DF93C9E07C
:10040000D0E0CC30D10534F461E08C2F0E94AA00FA
:100410002196F7CFDF91CF910895CF93C82F0E94F7
:10042000FD0160E08C2F0E94AA00CF910895CF9328
:10043000DF930E940D02C2E0D0E0C930D10534F450
:1004400060E08C2F0E94AA002196F7CFDF91CF9118
:100450000895CF93DF930E940D02C2E0D0E0C9302F
:10046000D10534F461E08C2F0E94AA002196F7CFC9
:10047000DF91CF9108950F931F93CF93DF938C015A
:10048000D0E0C0E0C330D105A4F4C8010E94290225
:1004900068EE73E080E090E00E949201C8010E9443
:1004A000170264EF71E080E090E00E9492012196D3
:1004B000E9CFDF91CF911F910F9108950F931F9373
:1004C000CF93DF9309E010E002C00F5F1F4F0C30A5
:1004D00011059CF4C8010E940D02C2E0D0E0C930B1
:1004E000D1059CF7CE010E94F30168EE73E080E035
:1004F00090E00E9492012196F2CFDF91CF911F915F
:100500000F9108950E94CB018130910591F054F034
:100510008230910599F0039759F48BE090E00E94A6
:100520003B020895892B19F40E945E0208950895F4
:10053000089589E090E00E943B0208958AE090E0EF
:100540000E943B020895CF93DF93D0E0C0E0CE300D
:10055000D10534F461E08C2F0E94DD002196F7CFA5
:10056000D0E0C0E0C430D1054CF4FE01E050FF4FB4
:1005700062E080810E94DD002196F4CFDF91CF916F
:1005800008951F920F920FB60F9211240F931F938D
:100590002F933F934F935F936F937F938F939F938B
:1005A000AF93BF930091090110910A0120910B01B3
:1005B00030910C0190910801B901A8014F5F5F4F84
:1005C0006F4F7F4F83E0890F8D3740F086E8890FAA
:1005D000B901A8014E5F5F4F6F4F7F4F80930801B5
:1005E0004093090150930A0160930B0170930C0131
:1005F00080910D0190910E01A0910F01B091100119
:100600000196A11DB11D80930D0190930E01A09341
:100610000F01B0931001BF91AF919F918F917F9186
:100620006F915F914F913F912F911F910F910F907B
:100630000FBE0F901F9018950E9431010E94A302D7
:100640000E94820280E090E0892BD1F30E9400009A
:06065000F7CFF894FFCF84
:080656000E0F10110E0F101120
:00000001FF
